S0150000636F6D6D756E69636174696F6E2E7372656399
S1130000FDC000001FC100001DC100001BC1000095
S113001019C1000017C1000015C1000013C1000080
S113002011C100000FC100000DC100000BC1000090
S113003009C1000007C1000005C1000003C10000A0
S113004001C10000FFC00000FDC00000FBC00000B3
S1130050F9C00000F7C00000F5C00000F3C00000C4
S1130060F1C00000A2C10000D4C10000EBC0000038
S113007004C2000036C20000E5C00000E3C0000076
S1130080E1C00000DFC00000DDC00000DBC00000F4
S1130090D9C00000D7C00000D5C00000D3C0000004
S11300A0D1C00000CFC00000CDC00000CBC0000014
S11300B0C9C00000C7C00000C5C00000C3C0000024
S11300C0C1C00000BFC00000BDC00000BBC0000034
S11300D0B9C00000B7C00000B5C00000B3C0000044
S11300E0B1C00000AFC00000ADC00000ABC0000054
S11300F0A9C00000A7C00000A5C00000A3C0000064
S1130100A1C000009FC000009DC000009BC0000073
S113011099C0000097C0000095C0000093C0000083
S113012091C000008FC000008DC000008BC0000093
S113013089C0000087C0000085C0000083C00000A3
S113014081C000007FC000007DC000007BC00000B3
S113015079C0000077C0000075C0000073C00000C3
S113016071C000006FC000006DC000006BC00000D3
S113017069C0000067C0000065C0000063C00000E3
S113018061C000005FC000005DC000005BC00000F3
S113019059C0000057C0000055C0000053C0000003
S11301A051C000004FC000004DC000004BC0000013
S11301B049C0000047C0000045C0000043C0000023
S11301C041C000003FC000003DC000003BC0000033
S11301D039C0000037C0000035C0000033C0000043
S11301E031C000002FC000002DC000002BC0000053
S11301F029C0000027C0000025C0000011241FBE34
S1130200CFEFCDBFDFE3DEBF00E00CBF18BE19BEE9
S11302101ABE1BBE10E2A0E0B0E2E2EAF1E100E0A7
S11302200BBF02C007900D92A036B107D9F71BBED1
S113023024E2A0E6B0E201C01D92A437B207E1F7C0
S113024084D1ADC7DDCE88ED84BFE0E5F0E08081E8
S113025082608083818181FFFDCF88ED84BF81E04E
S1130260809340000895CF93DF9382E190E27DD3A1
S113027085E290E27AD3C0E0D0E08AE290E275D3DE
S11302804AE060E070E0CE0157D780E090E06DD3A3
S113029080E390E26AD32196C530D10571F781E5F8
S11302A090E263D3DF91CF910895CF92DF92EF92E2
S11302B0FF920F931F93CF93DF937C01D4DFE1145C
S11302C0F10489F1C12CD12C4AE060E070E0C60150
S11302D033D780E090E049D388E290E246D38701A7
S11302E0C0E0D0E02FEF83EC99E0215080409040B3
S11302F0E1F700C00000F801819191918F0135D39D
S113030088E290E232D32196C530D10559F781E5D0
S113031090E22BD3F701E284F384FFEFCF1ADF0AD4
S1130320E114F10489F6DF91CF911F910F91FF90B1
S1130330EF90DF90CF900895EF92FF920F931F9369
S1130340CF93DF938C01E62EF72E8CE090E0CDD591
S1130350EC01009719F483E390E207D38CE0FE01EB
S113036011928A95E9F7EE2DFF2DDE0120E030E0B1
S1130370419151914D935D932F5F3F4F253031054E
S1130380B9F7F801808191818A879B87C083D183E3
S113039088859985EAD28DE390E2E7D2DF91CF9107
S11303A01F910F91FF90EF9008951F920F920FB637
S11303B00F92112408B60F9218BE09B60F9219BEF7
S11303C00BB60F921BBE2F933F934F935F936F9384
S11303D07F938F939F93AF93BF93EF93FF9382E6A3
S11303E090E210D3FF91EF91BF91AF919F918F91C4
S11303F07F916F915F914F913F912F910F900BBE21
S11304000F9009BE0F9008BE0F900FBE0F901F9063
S113041018951F920F920FB60F92112408B60F92DF
S113042018BE09B60F9219BE0BB60F921BBE2F93BE
S11304303F934F935F936F937F938F939F93AF9368
S1130440BF93EF93FF9382E690E2F7D2FF91EF918F
S1130450BF91AF919F918F917F916F915F914F91D8
S11304603F912F910F900BBE0F9009BE0F9008BEC5
S11304700F900FBE0F901F9018951F920F920FB6FA
S11304800F92112408B60F9218BE09B60F9219BE26
S11304900BB60F921BBE2F933F934F935F936F93B3
S11304A07F938F939F93AF93BF93EF93FF9389E6CB
S11304B092E2A8D2FF91EF91BF91AF919F918F915A
S11304C07F916F915F914F913F912F910F900BBE50
S11304D00F9009BE0F9008BE0F900FBE0F901F9093
S11304E018951F920F920FB60F92112408B60F920F
S11304F018BE09B60F9219BE0BB60F921BBE2F93EE
S11305003F934F935F936F937F938F939F93AF9397
S1130510BF93EF93FF9389E692E28FD2FF91EF911D
S1130520BF91AF919F918F917F916F915F914F9107
S11305303F912F910F900BBE0F9009BE0F9008BEF4
S11305400F900FBE0F901F901895CF93DF93CDB7E8
S1130550DEB76697CDBFDEBF76DEC12CE12C12EC90
S1130560F12E01E010E020E038E448EE51E060EACA
S113057078E082E690E29CD120E038E448EE51E055
S113058060EB78E089E692E293D181E0E0EAF0E082
S11305908283789480E490E2E8D12FEF83EC99E0B1
S11305A0215080409040E1F700C000008BE490E2CD
S11305B0E1D184E590E2DED188E0E6E0F0E2DE011C
S11305C01B9601900D928A95E1F71B8A1C8A1D8A5D
S11305D01E8ACE010B9689839A838E010D5F1F4F6D
S11305E05C016C01F801C082D1824AE0E12CF12C5B
S11305F0B701C801A1D5C701B8D181E590E2B5D151
S11306000E5F1F4F0A151B0569F781E590E2ADD116
S1130610A981BA81FD0101900020E9F731974AE0F0
S113062000E010E0B801CF018A1B9B0B85D5C801FF
S11306309CD181E590E299D103E110E0FFEF23EC36
S113064089E0F15020408040E1F700C00000BE0185
S11306506F5F7F4F80E690E26FDE01501109011554
S1130660110561F780916020909161201EDEFFCF1B
S11306701F93CF93DF93EC01162F8FD1882319F0AA
S1130680612FCE0196D1DF91CF911F9108950F93E1
S11306901F93CF93DF938C01EB012196FB016081C3
S11306A0662329F0C801E4DF69916111FBCFDF9172
S11306B0CF911F910F910895803A28E0920739F461
S11306C0E0E4F6E088E0818384E082830895803B5F
S11306D028E0920739F4E0E4F6E080E8818380E4DE
S11306E082830895803A29E0920739F4E0E6F6E03F
S11306F088E0818384E082830895803B29E0920727
S113070039F4E0E6F6E080E8818380E482830895AA
S1130710803A9A4031F4E0E8F6E088E0818384E0AE
S1130720828308954F925F926F927F928F929F92ED
S1130730AF92BF92CF92DF92EF92FF920F931F93EB
S113074049015A014E2D417020E130E0790102C087
S1130750F594E7944A95E2F700230CF039C08BD264
S11307602B013C01B7017727882777FD8095982FC7
S113077084D26B017C01C501B4017DD29B01AC0123
S1130780C701B60106D39B01AC01C301B201DFD19D
S113079020E030E040E85FE375D16B017C01112774
S11307A001950CF4109561E070E002C0660F771FAC
S11307B00A95E2F7882777FD8095982F5ED29B01F2
S11307C0AC01C701B601E5D247D329D2CB0134C06D
S11307D052D22B013C01B7017727882777FD8095FA
S11307E0982F4BD26B017C01C501B40144D29B010B
S11307F0AC01C701B601CDD29B01AC01C301B2016A
S1130800A6D14B015C0161E070E002C0660F771F66
S11308100A95E2F7882777FD8095982F2ED29B01C1
S1130820AC01C501B40193D120E030E040E85FE3BE
S113083029D112D3F4D1CB011F910F91FF90EF90E6
S1130840DF90CF90BF90AF909F908F907F906F90EC
S11308505F904F9008954F925F926F927F928F9224
S11308609F92AF92BF92EF920F93CF93DF932B019E
S11308703C0149015A01D02FC9EFED2E0C2FA501DF
S11308809401C301B2014EDF8115904118F0CF5F8E
S1130890C83099F78C2FDF91CF910F91EF90BF90D3
S11308A0AF909F908F907F906F905F904F9008953E
S11308B02F923F924F925F926F927F928F929F926C
S11308C0AF92BF92CF92EF92FF920F931F93CF9369
S11308D0DF93EC013B0149015A0117012801EC2C7B
S11308E00C2DA2019101C501B401B5DF182F082F09
S11308F0A2019101C501B40115DFB82EE92E41E032
S1130900B301CE013CD0E881F98183E08583E8819D
S1130910F981848180618483E881F981848188609C
S11309208483E881F98183818F7C80618383E8817A
S1130930F981B682E881F9811295107FE12AE78274
S113094088819981B9DEDF91CF911F910F91FF903A
S1130950EF90CF90BF90AF909F908F907F906F90CB
S11309605F904F903F902F900895BC0189E692E2EA
S11309708ECE0895BC0182E690E289CE0895FC01F2
S1130980608371834283EC5FFD4F10823197108244
S113099033961082319710820895FC01EB5FFD4F6E
S11309A02081319690812F5F81E0291301C080E07E
S11309B00895CF93DF93FC01DC01AB5FBD4F2C9115
S11309C011969C912F5F81E0291301C080E0882358
S11309D0B1F0DF01AB5FBD4F9C91EF01C90FD11D99
S11309E0CD5FDE4F68839F5F9C93A081B181139696
S11309F09C9113979C7F2281922B13969C93DF9159
S1130A00CF910895FC01ED5FFD4F20812F5F31965A
S1130A103081DC01ED91FC9111974081231759F04D
S1130A20FC01ED5FFD4F3081A30FB11D13964C9374
S1130A30208381E0089580E00895CF93DF93FC0143
S1130A40EA5FFD4F208131973081321307C0DC010A
S1130A50ED91FC9183818C7F838311C0FC01EA5F5B
S1130A60FD4F2081DC01A20FB11DAD5FBE4F2C9163
S1130A70EC01A881B9812C9380818F5F8083DF9101
S1130A80CF9108955058BB27AA270ED048C139D119
S1130A9030F03ED120F031F49F3F11F41EF42EC10A
S1130AA00EF4E095E7FB24C1E92F4AD180F3BA178D
S1130AB0620773078407950718F071F49EF562C105
S1130AC00EF4E0950B2EBA2FA02D0B01B901900165
S1130AD00C01CA01A0011124FF27591B99F0593FA9
S1130AE050F4503E68F11A16F040A22F232F342FF1
S1130AF04427585FF3CF469537952795A795F0403F
S1130B005395C9F77EF41F16BA0B620B730B840B53
S1130B10BAF09150A1F0FF0FBB1F661F771F881F0B
S1130B20C2F70EC0BA0F621F731F841F48F4879563
S1130B3077956795B795F7959E3F08F0B3CF939552
S1130B40880F08F09927EE0F9795879508950CD094
S1130B50E6C0DED040F0D5D030F021F45F3F19F08C
S1130B60C7C0511110C1CAC0EBD098F39923C9F37F
S1130B705523B1F3951B550BBB27AA27621773079F
S1130B80840738F09F5F5F4F220F331F441FAA1F53
S1130B90A9F333D00E2E3AF0E0E830D09150504013
S1130BA0E695001CCAF729D0FE2F27D0660F771FC1
S1130BB0881FBB1F261737074807AB07B0E809F0A3
S1130BC0BB0B802DBF01FF2793585F4F2AF09E3F38
S1130BD0510568F08DC0D7C05F3FECF3983EDCF35D
S1130BE0869577956795B795F7959F5FC9F7880FB1
S1130BF0911D9695879597F90895E1E0660F771F03
S1130C00881FBB1F621773078407BA0720F0621B93
S1130C10730B840BBA0BEE1F88F7E095089598D0F8
S1130C2088F09F5790F0B92F9927B751A0F0D1F0D1
S1130C30660F771F881F991F1AF0BA95C9F712C05B
S1130C40B13081F09FD0B1E008959CC0672F782F18
S1130C508827B85F39F0B93FCCF3869577956795C7
S1130C60B395D9F73EF490958095709561957F4F33
S1130C708F4F9F4F0895E89409C097FB3EF49095D9
S1130C808095709561957F4F8F4F9F4F9923A9F061
S1130C90F92F96E9BB279395F695879577956795F0
S1130CA0B795F111F8CFFAF4BB0F11F460FF1BC034
S1130CB06F5F7F4F8F4F9F4F16C0882311F096E9C7
S1130CC011C0772321F09EE8872F762F05C0662375
S1130CD071F096E8862F70E060E02AF09A95660F2E
S1130CE0771F881FDAF7880F9695879597F90895E7
S1130CF097F99F6780E870E060E008959FEF80ECCB
S1130D00089500240A94161617061806090608956D
S1130D1000240A9412161306140605060895092ED3
S1130D200394000C11F4882352F0BB0F40F4BF2B42
S1130D3011F460FF04C06F5F7F4F8F4F9F4F089582
S1130D4057FD9058440F551F59F05F3F71F0479578
S1130D50880F97FB991F61F09F3F79F0879508955D
S1130D60121613061406551FF2CF4695F1DF08C07C
S1130D70161617061806991FF1CF86957105610599
S1130D8008940895E894BB2766277727CB0197F941
S1130D9008950BD0C4CFB5DF28F0BADF18F095233F
S1130DA009F0A6CFABCF1124EECFCADFA0F3959FF5
S1130DB0D1F3950F50E0551F629FF001729FBB273E
S1130DC0F00DB11D639FAA27F00DB11DAA1F649FEA
S1130DD06627B00DA11D661F829F2227B00DA11D9D
S1130DE0621F739FB00DA11D621F839FA00D611D23
S1130DF0221F749F3327A00D611D231F849F600D44
S1130E00211D822F762F6A2F11249F5750408AF07C
S1130E10E1F088234AF0EE0FFF1FBB1F661F771F08
S1130E20881F91505040A9F79E3F510570F060CF44
S1130E30AACF5F3FECF3983EDCF3869577956795F0
S1130E40B795F795E7959F5FC1F7FE2B880F911D26
S1130E509695879597F908957BDFE0F09E37D8F053
S1130E609639B8F49E3848F4672F782F8827985F0E
S1130E70F9CF86957795679593959539D0F3B62FE5
S1130E80B1706B0F711D811D20F48795779567955F
S1130E90939502C01CC077CF882371F4772321F087
S1130EA09850872B762F07C0662311F499270DC01D
S1130EB09051862B70E060E02AF09A95660F771FB8
S1130EC0881FDAF7880F9695879597F908959F3FBD
S1130ED031F0915020F4879577956795B795880FF1
S1130EE0911D9695879597F90895CF93DF93823056
S1130EF0910510F482E090E0E0917224F091732463
S1130F0020E030E0A0E0B0E0309739F14081518139
S1130F1048175907B8F04817590771F4828193812B
S1130F20109729F012968D939C9313972CC080935D
S1130F3072249093732427C02115310531F0421790
S1130F40530718F0A901DB0101C0EF019A01BD01AB
S1130F50DF010280F381E02DD7CF21153105F9F0AF
S1130F60281B390B2430310580F48A819B8161155B
S1130F70710521F0FB018283938304C08093722462
S1130F8090937324FE01329644C0FE01E20FF31FD6
S1130F908193919322503109288339833AC0209157
S1130FA0702430917124232B41F42091022030913C
S1130FB003202093702430937124209100203091D9
S1130FC001202115310541F42DB73EB7409104208D
S1130FD050910520241B350BE0917024F09171246D
S1130FE0E217F307A0F42E1B3F0B2817390778F0FC
S1130FF0AC014E5F5F4F2417350748F04E0F5F1F5B
S113100040937024509371248193919302C0E0E043
S1131010F0E0CF01DF91CF910895CF93DF93009754
S113102009F487C0FC01329712821382C0917224A2
S1131030D0917324209781F420813181280F391FA6
S113104080917024909171248217930779F5E0932D
S11310507024F09371246DC0DE0120E030E0AE17FF
S1131060BF0750F412964D915C9113979D01411561
S1131070510509F1DA01F3CFA283B3834081518191
S1131080840F951F8A179B0771F48D919C9111977A
S1131090840F951F02968083918312968D919C9163
S11310A01397828393832115310529F4E0937224E5
S11310B0F09373243EC0D9011296ED93FC931397D9
S11310C04D915D91A40FB51FEA17FB0779F4808158
S11310D09181840F951F0296D9018D939C9311974A
S11310E08281938112968D939C931397E0E0F0E0B4
S11310F08A819B81009719F0FE01EC01F9CFCE01A2
S1131100029628813981820F931F20917024309197
S113111071242817390769F4309729F4109272243E
S11311201092732402C012821382C0937024D0934D
S11311307124DF91CF910895BB274A3031F499236C
S113114022F4BDE2909581959F4F01C0BB27FB011E
S11311505527AA27880F991FAA1FA41710F0A41BAC
S113116083955051B9F7A05DAA3308F0A95DA19306
S1131170009779F7B111B1931192CB0100C0DC0152
S1131180FC01672F71917723E1F7329704C07C91BA
S11311906D9370836291AE17BF07C8F30895F894F6
S10511A0FFCF7B
S11311A200007424200061626364656667000000C5
S11311B200000D0A506F70756C6174696F6E6C6912
S11311C273740D0A004E722E0900446174615B004F
S11311D25D09004E6F206D656D6F7279000A0D0016
S11311E21B5B313B31481B5B324A004E434647206E
S11311F2300D0A0053424956203530300D0A0000A2
S9030000FC
