:10000000FDC000001FC100001DC100001BC1000099
:1000100019C1000017C1000015C1000013C1000084
:1000200011C100000FC100000DC100000BC1000094
:1000300009C1000007C1000005C1000003C10000A4
:1000400001C10000FFC00000FDC00000FBC00000B7
:10005000F9C00000F7C00000F5C00000F3C00000C8
:10006000F1C0000000C1000032C10000EBC0000080
:1000700062C1000094C10000E5C00000E3C00000C0
:10008000E1C00000DFC00000DDC00000DBC00000F8
:10009000D9C00000D7C00000D5C00000D3C0000008
:1000A000D1C00000CFC00000CDC00000CBC0000018
:1000B000C9C00000C7C00000C5C00000C3C0000028
:1000C000C1C00000BFC00000BDC00000BBC0000038
:1000D000B9C00000B7C00000B5C00000B3C0000048
:1000E000B1C00000AFC00000ADC00000ABC0000058
:1000F000A9C00000A7C00000A5C00000A3C0000068
:10010000A1C000009FC000009DC000009BC0000077
:1001100099C0000097C0000095C0000093C0000087
:1001200091C000008FC000008DC000008BC0000097
:1001300089C0000087C0000085C0000083C00000A7
:1001400081C000007FC000007DC000007BC00000B7
:1001500079C0000077C0000075C0000073C00000C7
:1001600071C000006FC000006DC000006BC00000D7
:1001700069C0000067C0000065C0000063C00000E7
:1001800061C000005FC000005DC000005BC00000F7
:1001900059C0000057C0000055C0000053C0000007
:1001A00051C000004FC000004DC000004BC0000017
:1001B00049C0000047C0000045C0000043C0000027
:1001C00041C000003FC000003DC000003BC0000037
:1001D00039C0000037C0000035C0000033C0000047
:1001E00031C000002FC000002DC000002BC0000057
:1001F00029C0000027C0000025C0000011241FBE38
:10020000CFEFCDBFDFE3DEBF00E00CBF18BE19BEED
:100210001ABE1BBE10E2A0E0B0E2EEE6FFE000E096
:100220000BBF02C007900D92AA37B107D9F71BBECA
:1002300025E2AAE7B0E201C01D92A830B207E1F7BB
:10024000E2D093C6DDCE88ED84BFE0E5F0E08081AA
:1002500082608083818181FFFDCF88ED84BF81E052
:100260008093400008951F920F920FB60F921124B1
:1002700008B60F9218BE09B60F9219BE0BB60F92B0
:100280001BBE2F933F934F935F936F937F938F93F7
:100290009F93AF93BF93EF93FF938AE790E2D0D3FE
:1002A000FF91EF91BF91AF919F918F917F916F914E
:1002B0005F914F913F912F910F900BBE0F9009BE10
:1002C0000F9008BE0F900FBE0F901F9018951F92B1
:1002D0000F920FB60F92112408B60F9218BE09B6EE
:1002E0000F9219BE0BB60F921BBE2F933F934F93E5
:1002F0005F936F937F938F939F93AF93BF93EF938E
:10030000FF938AE790E2B7D3FF91EF91BF91AF914E
:100310009F918F917F916F915F914F913F912F911D
:100320000F900BBE0F9009BE0F9008BE0F900FBE2E
:100330000F901F9018951F920F920FB60F921124D5
:1003400008B60F9218BE09B60F9219BE0BB60F92DF
:100350001BBE2F933F934F935F936F937F938F9326
:100360009F93AF93BF93EF93FF9381E892E268D39B
:10037000FF91EF91BF91AF919F918F917F916F917D
:100380005F914F913F912F910F900BBE0F9009BE3F
:100390000F9008BE0F900FBE0F901F9018951F92E0
:1003A0000F920FB60F92112408B60F9218BE09B61D
:1003B0000F9219BE0BB60F921BBE2F933F934F9314
:1003C0005F936F937F938F939F93AF93BF93EF93BD
:1003D000FF9381E892E24FD3FF91EF91BF91AF91EC
:1003E0009F918F917F916F915F914F913F912F914D
:1003F0000F900BBE0F9009BE0F9008BE0F900FBE5E
:100400000F901F901895CF93DF93CDB7DEB7C058EC
:10041000D109CDBFDEBF17DFC12CE12C12ECF12ECC
:1004200001E010E020E038E448EE51E060EA78E0D6
:100430008AE790E243D220E038E448EE51E060EBF6
:1004400078E081E892E23AD281E0E0EAF0E082836B
:1004500078942FEF87EA91E6215080409040E1F7B1
:1004600000C0000080E090E28BD289E090E288D268
:100470008E010F5F1F4FF80101900020E9F73197BF
:10048000AF01401B510B60E070E0C8014CD52FEF6D
:1004900087EA91E6215080409040E1F700C00000DB
:1004A00084E190E268D28FE190E265D288D0BC010D
:1004B000C80154D561E0C80105D08130E1F6C8011A
:1004C00017D0D9CFFC0101900020E9F73197E81B44
:1004D000F90B613029F481E0E93219F080E00895E8
:1004E00080E008956AE270E281E892E2D6C0089561
:1004F0000F931F93CF93DF93CDB7DEB72597CDBF73
:10050000DEBF8C01CE010196FC0101900020E9F7CD
:100510003197AF01481B590B60E070E004D587E3C9
:1005200090E229D2C80127D286E090E224D2F801D5
:1005300080818A3369F0319690E0A1E0B0E0AC0FA1
:10054000BD1FA90FB11D8C939F5F81918A33A9F7BD
:100550008BE490E210D2CE0101960DD266E570E2F6
:10056000CE010196F2D4892B19F4C801BBDF1FC05C
:100570006BE570E2CE010196E8D4892BC1F06FE5FE
:1005800070E2CE010196E1D4892B89F063E670E236
:10059000CE010196DAD4892B51F068E670E2CE01E3
:1005A0000196D3D4892B19F08CE690E2E4D12596FC
:1005B000CDBFDEBFDF91CF911F910F9108950F93B3
:1005C0001F93CF93DF93CDB7DEB7C058D109CDBF0E
:1005D000DEBFE8E8F4E201900020E9F73197AF01CF
:1005E0004858544260E070E088E894E29CD48E0160
:1005F0000F5F1F4FF80101900020E9F73197AF011D
:10060000401B510B60E070E0C8018DD48AE790E296
:1006100021D08983B80188E894E2A0D489818D3003
:1006200071F08D3031F0BE016F5F7F4F88E894E24A
:1006300081D48AE790E20ED089838D3091F788E8E3
:1006400094E2C058DF4FCDBFDEBFDF91CF911F9145
:100650000F910895CF93DF93EC01DAD1882349F00D
:10066000E0EBF8E0818186FFFDCFCE01DCD190E0A8
:1006700002C080E091E0DF91CF9108951F93CF9366
:10068000DF93EC01162F8FD1882319F0612FCE0153
:1006900096D1DF91CF911F9108950F931F93CF9320
:1006A000DF938C01EB012196FB016081662329F029
:1006B000C801E4DF69916111FBCFDF91CF911F91F8
:1006C0000F910895803A28E0920739F4E0E4F6E0CB
:1006D00088E0818384E082830895803B28E092074C
:1006E00039F4E0E4F6E080E8818380E482830895D1
:1006F000803A29E0920739F4E0E6F6E088E0818369
:1007000084E082830895803B29E0920739F4E0E693
:10071000F6E080E8818380E482830895803A9A40FD
:1007200031F4E0E8F6E088E0818384E08283089594
:100730004F925F926F927F928F929F92AF92BF92F1
:10074000CF92DF92EF92FF920F931F9349015A01CC
:100750004E2D417020E130E0790102C0F594E7941C
:100760004A95E2F700230CF039C0A3D22B013C01DB
:10077000B7017727882777FD8095982F9CD26B014A
:100780007C01C501B40195D29B01AC01C701B60142
:100790001ED39B01AC01C301B201F7D120E030E0D0
:1007A00040E85FE38DD16B017C01112701950CF4CA
:1007B000109561E070E002C0660F771F0A95E2F7BE
:1007C000882777FD8095982F76D29B01AC01C701D1
:1007D000B601FDD25FD341D2CB0134C06AD22B0126
:1007E0003C01B7017727882777FD8095982F63D242
:1007F0006B017C01C501B4015CD29B01AC01C70156
:10080000B601E5D29B01AC01C301B201BED14B01DF
:100810005C0161E070E002C0660F771F0A95E2F7A5
:10082000882777FD8095982F46D29B01AC01C501A2
:10083000B401ABD120E030E040E85FE341D12AD3FE
:100840000CD2CB011F910F91FF90EF90DF90CF90D2
:10085000BF90AF909F908F907F906F905F904F90E0
:1008600008954F925F926F927F928F929F92AF9274
:10087000BF92EF920F93CF93DF932B013C0149017D
:100880005A01D02FC9EFED2E0C2FA5019401C30101
:10089000B2014EDF8115904118F0CF5FC83099F753
:1008A0008C2FDF91CF910F91EF90BF90AF909F90E1
:1008B0008F907F906F905F904F9008952F923F920E
:1008C0004F925F926F927F928F929F92AF92BF9260
:1008D000CF92EF92FF920F931F93CF93DF93EC0190
:1008E0003B0149015A0117012801EC2C0C2DA201F2
:1008F0009101C501B401B5DF182F082FA2019101A4
:10090000C501B40115DFB82EE92E41E0B301CE01D7
:100910003CD0E881F98183E08583E881F981848195
:1009200080618483E881F981848188608483E8819F
:10093000F98183818F7C80618383E881F981B6822C
:10094000E881F9811295107FE12AE78288819981F7
:10095000B9DEDF91CF911F910F91FF90EF90CF9073
:10096000BF90AF909F908F907F906F905F904F90CF
:100970003F902F900895BC0181E892E28ECE0895B9
:10098000BC018AE790E289CE0895FC0160837183FF
:100990004283EC5FFD4F10823197108233961082B4
:1009A000319710820895FC01EB5FFD4F2081319655
:1009B00090812F5F81E0291301C080E00895CF93DB
:1009C000DF93FC01DC01AB5FBD4F2C9111969C9134
:1009D0002F5F81E0291301C080E08823B1F0DF019F
:1009E000AB5FBD4F9C91EF01C90FD11DCD5FDE4FB5
:1009F00068839F5F9C93A081B18113969C9113970C
:100A00009C7F2281922B13969C93DF91CF91089526
:100A1000FC01ED5FFD4F20813196908181E029132B
:100A200001C080E00895FC01EC5FFD4F2081DC01F6
:100A3000A20FB11D13968C9190819F5F90830895B2
:100A4000FC01ED5FFD4F20812F5F31963081DC018D
:100A5000ED91FC9111974081231759F0FC01ED5F56
:100A6000FD4F3081A30FB11D13964C93208381E07D
:100A7000089580E00895CF93DF93FC01EA5FFD4F76
:100A8000208131973081321307C0DC01ED91FC9158
:100A900083818C7F838311C0FC01EA5FFD4F20813D
:100AA000DC01A20FB11DAD5FBE4F2C91EC01A881FE
:100AB000B9812C9380818F5F8083DF91CF910895DE
:100AC0005058BB27AA270ED048C139D130F03ED1AB
:100AD00020F031F49F3F11F41EF42EC10EF4E09586
:100AE000E7FB24C1E92F4AD180F3BA1762077307E5
:100AF0008407950718F071F49EF562C10EF4E09535
:100B00000B2EBA2FA02D0B01B90190010C01CA01C7
:100B1000A0011124FF27591B99F0593F50F4503E72
:100B200068F11A16F040A22F232F342F4427585F64
:100B3000F3CF469537952795A795F0405395C9F77C
:100B40007EF41F16BA0B620B730B840BBAF0915034
:100B5000A1F0FF0FBB1F661F771F881FC2F70EC0D3
:100B6000BA0F621F731F841F48F4879577956795A6
:100B7000B795F7959E3F08F0B3CF9395880F08F08F
:100B80009927EE0F9795879508950CD0E6C0DED093
:100B900040F0D5D030F021F45F3F19F0C7C05111BB
:100BA00010C1CAC0EBD098F39923C9F35523B1F310
:100BB000951B550BBB27AA2762177307840738F0CC
:100BC0009F5F5F4F220F331F441FAA1FA9F333D02B
:100BD0000E2E3AF0E0E830D091505040E695001CDF
:100BE000CAF729D0FE2F27D0660F771F881FBB1F9B
:100BF000261737074807AB07B0E809F0BB0B802D75
:100C0000BF01FF2793585F4F2AF09E3F510568F0C0
:100C10008DC0D7C05F3FECF3983EDCF386957795A7
:100C20006795B795F7959F5FC9F7880F911D9695C2
:100C3000879597F90895E1E0660F771F881FBB1F1E
:100C4000621773078407BA0720F0621B730B840BCB
:100C5000BA0BEE1F88F7E095089598D088F09F575B
:100C600090F0B92F9927B751A0F0D1F0660F771FF8
:100C7000881F991F1AF0BA95C9F712C0B13081F0D8
:100C80009FD0B1E008959CC0672F782F8827B85F68
:100C900039F0B93FCCF3869577956795B395D9F739
:100CA0003EF490958095709561957F4F8F4F9F4F43
:100CB0000895E89409C097FB3EF49095809570954F
:100CC00061957F4F8F4F9F4F9923A9F0F92F96E998
:100CD000BB279395F695879577956795B795F1110D
:100CE000F8CFFAF4BB0F11F460FF1BC06F5F7F4FAA
:100CF0008F4F9F4F16C0882311F096E911C07723BC
:100D000021F09EE8872F762F05C0662371F096E8C4
:100D1000862F70E060E02AF09A95660F771F881F93
:100D2000DAF7880F9695879597F9089597F99F6751
:100D300080E870E060E008959FEF80EC0895002463
:100D40000A941616170618060906089500240A9430
:100D500012161306140605060895092E0394000CB6
:100D600011F4882352F0BB0F40F4BF2B11F460FF45
:100D700004C06F5F7F4F8F4F9F4F089557FD90586E
:100D8000440F551F59F05F3F71F04795880F97FB4F
:100D9000991F61F09F3F79F0879508951216130609
:100DA0001406551FF2CF4695F1DF08C01616170638
:100DB0001806991FF1CF869571056105089408956D
:100DC000E894BB2766277727CB0197F908950BD0C6
:100DD000C4CFB5DF28F0BADF18F0952309F0A6CF0D
:100DE000ABCF1124EECFCADFA0F3959FD1F3950FBF
:100DF00050E0551F629FF001729FBB27F00DB11D9F
:100E0000639FAA27F00DB11DAA1F649F6627B00D2E
:100E1000A11D661F829F2227B00DA11D621F739F17
:100E2000B00DA11D621F839FA00D611D221F749F25
:100E30003327A00D611D231F849F600D211D822F6C
:100E4000762F6A2F11249F5750408AF0E1F08823B3
:100E50004AF0EE0FFF1FBB1F661F771F881F9150C0
:100E60005040A9F79E3F510570F060CFAACF5F3F79
:100E7000ECF3983EDCF3869577956795B795F795F3
:100E8000E7959F5FC1F7FE2B880F911D969587957B
:100E900097F908957BDFE0F09E37D8F09639B8F4E3
:100EA0009E3848F4672F782F8827985FF9CF86956A
:100EB0007795679593959539D0F3B62FB1706B0FF1
:100EC000711D811D20F4879577956795939502C0D4
:100ED0001CC077CF882371F4772321F09850872B9B
:100EE000762F07C0662311F499270DC09051862BE9
:100EF00070E060E02AF09A95660F771F881FDAF796
:100F0000880F9695879597F908959F3F31F09150F6
:100F100020F4879577956795B795880F911D9695DD
:100F2000879597F90895DC0101C06D9341505040B9
:100F3000E0F70895FB01DC010D900020E9F711971F
:100F400001900D920020E1F70895FB01DC018D91E5
:100F5000019080190110D9F3990B0895FB01DC0170
:0E0F600001900D920020E1F70895F894FFCF64
:100F6E004E43464720300D0A005342495620353035
:100F7E00300D0A001B5B313B31481B5B324A006D62
:100F8E006573736167653A0D0A0066756E63746901
:100F9E00656565650D0A0044657465726D696E67F9
:100FAE00206D6573736167650D0A00436F6D6D612A
:100FBE006E643A0D0A002A52524E00444E4F004EB5
:100FCE00494E005344415400414952004E6F206334
:0A0FDE006F6D6D616E640D0A000076
:00000001FF
