:10000000FDC0000020C100001EC100001CC1000096
:100010001AC1000018C1000016C1000014C1000080
:1000200012C1000010C100000EC100000CC1000090
:100030000AC1000008C1000006C1000004C10000A0
:1000400002C1000000C10000FEC00000FCC00000B2
:10005000FAC00000F8C00000F6C00000F4C00000C4
:10006000F2C00000CEC1000000C20000ECC00000E1
:1000700030C2000062C20000E6C00000E4C0000020
:10008000E2C00000E0C00000DEC00000DCC00000F4
:10009000DAC00000D8C00000D6C00000D4C0000004
:1000A000D2C00000D0C00000CEC00000CCC0000014
:1000B000CAC00000C8C00000C6C00000C4C0000024
:1000C000C2C00000C0C00000BEC00000BCC0000034
:1000D000BAC00000B8C00000B6C00000B4C0000044
:1000E000B2C00000B0C00000AEC00000ACC0000054
:1000F000AAC00000A8C00000A6C00000A4C0000064
:10010000A2C00000A0C000009EC000009CC0000073
:100110009AC0000098C0000096C0000094C0000083
:1001200092C0000090C000008EC000008CC0000093
:100130008AC0000088C0000086C0000084C00000A3
:1001400082C0000080C000007EC000007CC00000B3
:100150007AC0000078C0000076C0000074C00000C3
:1001600072C0000070C000006EC000006CC00000D3
:100170006AC0000068C0000066C0000064C00000E3
:1001800062C0000060C000005EC000005CC00000F3
:100190005AC0000058C0000056C0000054C0000003
:1001A00052C0000050C000004EC000004CC0000013
:1001B0004AC0000048C0000046C0000044C0000023
:1001C00042C0000040C000003EC000003CC0000033
:1001D0003AC0000038C0000036C0000034C0000043
:1001E00032C0000030C000002EC000002CC0000053
:1001F0002AC0000028C0000026C0000011241FBE35
:10020000CFEFCDBFDFE3DEBF00E00CBF18BE19BEED
:100210001ABE1BBE10E2A0E0B0E2EAEFF4E100E09B
:100220000BBF02C007900D92A639B107D9F71BBECC
:1002300025E2A6E9B0E201C01D92AA32B207E1F7B9
:10024000B0D10C947B0ADCCE88ED84BFE0E5F0E011
:10025000808182608083818181FFFDCF88ED84BFB2
:1002600081E0809340000895CF93DF9382E190E294
:10027000EED485E290E2EBD4C0E0D0E08AE290E2F6
:10028000E6D44AE060E070E0CE010E94480A80E0D7
:1002900090E0DDD480E390E2DAD42196C530D10538
:1002A00069F78EE490E2D3D4DF91CF910895CF9295
:1002B000DF92EF92FF920F931F93CF93DF937C0116
:1002C000D3DFE114F10491F1C12CD12C4AE060E0BC
:1002D00070E0C6010E94480A80E090E0B8D488E24D
:1002E00090E2B5D48701C0E0D0E0F801819191910E
:1002F0008F01ADD488E290E2AAD42196C530D10511
:10030000A1F78EE490E2A3D4FFEF23EC89E0F15053
:1003100020408040E1F700C00000F701E284F38450
:10032000FFEFCF1ADF0AE114F10481F6DF91CF91DC
:100330001F910F91FF90EF90DF90CF9008950F9352
:100340001F93CF93DF93EC01062F172F2A853B8550
:100350002115310511F0E901F9CF8CE090E04FD77C
:100360008A879B87E02FF12F80E090E0AA85BB85EC
:1003700021913191AC01440F551FA40FB51F2D934E
:100380003C9301968530910589F7EA85FB851286B5
:100390001386DF91CF911F910F910895EF92FF92F5
:1003A0000F931F93CF93DF938C01E62EF72E8CE0F3
:1003B00090E025D7EC01009719F483E390E247D44D
:1003C0008CE0FE0111928A95E9F7EE2DFF2DDE01FA
:1003D00020E030E0419151914D935D932F5F3F4F6D
:1003E00025303105B9F7F801808191818A879B8793
:1003F000C083D183DF91CF911F910F91FF90EF9038
:1004000008951F920F920FB60F92112408B60F9203
:1004100018BE09B60F9219BE0BB60F921BBE2F93D2
:100420003F934F935F936F937F938F939F93AF937C
:10043000BF93EF93FF9388E990E26ED4FF91EF9121
:10044000BF91AF919F918F917F916F915F914F91EC
:100450003F912F910F900BBE0F9009BE0F9008BED9
:100460000F900FBE0F901F9018951F920F920FB60E
:100470000F92112408B60F9218BE09B60F9219BE3A
:100480000BB60F921BBE2F933F934F935F936F93C7
:100490007F938F939F93AF93BF93EF93FF9388E9DD
:1004A00090E255D4FF91EF91BF91AF919F918F91C1
:1004B0007F916F915F914F913F912F910F900BBE64
:1004C0000F9009BE0F9008BE0F900FBE0F901F90A7
:1004D00018951F920F920FB60F92112408B60F9223
:1004E00018BE09B60F9219BE0BB60F921BBE2F9302
:1004F0003F934F935F936F937F938F939F93AF93AC
:10050000BF93EF93FF938FE992E206D4FF91EF91AF
:10051000BF91AF919F918F917F916F915F914F911B
:100520003F912F910F900BBE0F9009BE0F9008BE08
:100530000F900FBE0F901F9018951F920F920FB63D
:100540000F92112408B60F9218BE09B60F9219BE69
:100550000BB60F921BBE2F933F934F935F936F93F6
:100560007F938F939F93AF93BF93EF93FF938FE905
:1005700092E2EDD3FF91EF91BF91AF919F918F9157
:100580007F916F915F914F913F912F910F900BBE93
:100590000F9009BE0F9008BE0F900FBE0F901F90D6
:1005A0001895CF93DF93CDB7DEB7C659D109CDBF2C
:1005B000DEBF4ADEC12CE12C12ECF12E01E010E08E
:1005C00020E038E448EE51E060EA78E088E990E223
:1005D000E1D220E038E448EE51E060EB78E08FE9CA
:1005E00092E2D8D281E0E0EAF0E0828378948DE371
:1005F00090E22DD32FEF83EC99E021508040904082
:10060000E1F700C0000088E490E226D381E590E2A3
:1006100023D388E0E6E0F0E2DE011B9601900D9224
:100620008A95E1F71B8A1C8A1D8A1E8ACE010B96C9
:1006300089839A838B839C838D839E838F83988702
:1006400089879A872FEF83EC99E021508040904072
:10065000E1F700C00000BE016F5F7F4F86E990E2C6
:100660009DDE8E01095E1F4FF80101900020E9F721
:100670003197AF01401B510B60E070E0C801E6D636
:100680002FEF83EC99E0215080409040E1F700C0CB
:10069000000001D1BC01C801F4D68EE490E2D7D2AB
:1006A00061E0C80109D0813019F4C80175D0DCCFF0
:1006B0008CE590E2CCD2D8CFFC0101900020E9F784
:1006C0003197E81BF90B613029F481E0E93219F028
:1006D00080E0089580E008950F931F93CF93DF93F8
:1006E000CDB7DEB76697CDBFDEBF8C01CE010196D8
:1006F000FC0101900020E9F73197AF01481B590B2D
:1007000060E070E0A3D6F80181818C3271F03296FE
:1007100090E0A1E0B0E0AC0FBD1FA90FB11D8C931C
:100720009F5F81918C32A9F701C090E08E010F5F2D
:100730001F4FF801E90FF11D10828D859E85FC0188
:1007400001900020E9F73197AF01481B590B60E099
:1007500070E07CD60D871E870F87188B098B1A8B4C
:100760000B8B1C8B0D8B1E8BBE01635F7F4F8091AB
:10077000962090919720E3DD8DE390E268D28091FE
:1007800096209091972093DD6696CDBFDEBFDF91D6
:10079000CF911F910F910895EF92FF920F931F93A6
:1007A000CF93DF9300D01F92CDB7DEB77C01CE018F
:1007B0000196FC0101900020E9F73197AF01481B39
:1007C000590B60E070E042D6C70141D2F701818148
:1007D0008A3329F487010F5F1F4F80E021C0870112
:1007E0000E5F1F4FF70192819A33C9F09801D7012C
:1007F000139680E004C089019D919A3389F08901A4
:10080000E1E0F0E0EC0FFD1FE80FF11D90838F5F3A
:100810002F5F3F4FF80190819A3369F701C080E064
:10082000E1E0F0E0EC0FFD1FE80FF11D108262E740
:1008300070E2CE0101961CD6892B21F4C8010196E5
:100840004BDF1FC067E770E2CE01019611D6892BFE
:10085000C1F06BE770E2CE0101960AD6892B89F0D0
:100860006FE770E2CE01019603D6892B51F064E860
:1008700070E2CE010196FCD5892B19F088E890E250
:10088000E6D12496CDBFDEBFDF91CF911F910F91AE
:10089000FF90EF9008950F931F93CF93DF93CDB701
:1008A000DEB7C058D109CDBFDEBFE6EAF4E2019061
:1008B0000020E9F73197AF01465A544260E070E0FA
:1008C00086EA94E2C3D58E010F5F1F4FF8010190B5
:1008D0000020E9F73197AF01401B510B60E070E059
:1008E000C801B4D588E990E221D08983B80186EAAD
:1008F00094E2C7D589818D3071F08D3031F0BE0121
:100900006F5F7F4F86EA94E2A8D588E990E20ED027
:1009100089838D3091F786EA94E2C058DF4FCDBFCE
:10092000DEBFDF91CF911F910F910895CF93DF9399
:10093000EC01DAD1882349F0E0EBF8E0818186FF11
:10094000FDCFCE01DCD190E002C080E091E0DF91EC
:10095000CF9108951F93CF93DF93EC01162F8FD182
:10096000882319F0612FCE0196D1DF91CF911F918D
:1009700008950F931F93CF93DF938C01EB01219682
:10098000FB016081662329F0C801E4DF69916111F0
:10099000FBCFDF91CF911F910F910895803A28E00E
:1009A000920739F4E0E4F6E088E0818384E0828312
:1009B0000895803B28E0920739F4E0E4F6E080E80F
:1009C000818380E482830895803A29E0920739F494
:1009D000E0E6F6E088E0818384E082830895803B4E
:1009E00029E0920739F4E0E6F6E080E8818380E4CC
:1009F00082830895803A9A4031F4E0E8F6E088E096
:100A0000818384E0828308954F925F926F927F92F8
:100A10008F929F92AF92BF92CF92DF92EF92FF920E
:100A20000F931F9349015A014E2D417020E130E090
:100A3000790102C0F594E7944A95E2F700230CF09F
:100A400039C0A3D22B013C01B7017727882777FD56
:100A50008095982F9CD26B017C01C501B40195D281
:100A60009B01AC01C701B6011ED39B01AC01C301C0
:100A7000B201F7D120E030E040E85FE38DD16B01B7
:100A80007C01112701950CF4109561E070E002C023
:100A9000660F771F0A95E2F7882777FD8095982FD4
:100AA00076D29B01AC01C701B601FDD25FD341D222
:100AB000CB0134C06AD22B013C01B70177278827CC
:100AC00077FD8095982F63D26B017C01C501B4013D
:100AD0005CD29B01AC01C701B601E5D29B01AC0120
:100AE000C301B201BED14B015C0161E070E002C004
:100AF000660F771F0A95E2F7882777FD8095982F74
:100B000046D29B01AC01C501B401ABD120E030E07D
:100B100040E85FE341D12AD30CD2CB011F910F9162
:100B2000FF90EF90DF90CF90BF90AF909F908F900D
:100B30007F906F905F904F9008954F925F926F9269
:100B40007F928F929F92AF92BF92EF920F93CF932B
:100B5000DF932B013C0149015A01D02FC9EFED2E43
:100B60000C2FA5019401C301B2014EDF8115904104
:100B700018F0CF5FC83099F78C2FDF91CF910F918C
:100B8000EF90BF90AF909F908F907F906F905F900D
:100B90004F9008952F923F924F925F926F927F9263
:100BA0008F929F92AF92BF92CF92EF92FF920F934C
:100BB0001F93CF93DF93EC013B0149015A011701C9
:100BC0002801EC2C0C2DA2019101C501B401B5DF67
:100BD000182F082FA2019101C501B40115DFB82E0D
:100BE000E92E41E0B301CE013CD0E881F98183E0F8
:100BF0008583E881F981848180618483E881F9813A
:100C0000848188608483E881F98183818F7C80611D
:100C10008383E881F981B682E881F9811295107F9A
:100C2000E12AE78288819981B9DEDF91CF911F9116
:100C30000F91FF90EF90CF90BF90AF909F908F90CB
:100C40007F906F905F904F903F902F900895BC01E0
:100C50008FE992E28ECE0895BC0188E990E289CEB8
:100C60000895FC01608371834283EC5FFD4F108225
:100C70003197108233961082319710820895FC01CB
:100C8000EB5FFD4F2081319690812F5F81E029132A
:100C900001C080E00895CF93DF93FC01DC01AB5FDE
:100CA000BD4F2C9111969C912F5F81E0291301C0BB
:100CB00080E08823B1F0DF01AB5FBD4F9C91EF0175
:100CC000C90FD11DCD5FDE4F68839F5F9C93A081CC
:100CD000B18113969C9113979C7F2281922B13963E
:100CE0009C93DF91CF910895FC01ED5FFD4F208132
:100CF0003196908181E0291301C080E00895FC01C4
:100D0000EC5FFD4F2081DC01A20FB11D13968C9189
:100D100090819F5F90830895FC01ED5FFD4F2081DE
:100D20002F5F31963081DC01ED91FC91119740816C
:100D3000231759F0FC01ED5FFD4F3081A30FB11D6A
:100D400013964C93208381E0089580E00895CF931B
:100D5000DF93FC01EA5FFD4F208131973081321330
:100D600007C0DC01ED91FC9183818C7F838311C0EE
:100D7000FC01EA5FFD4F2081DC01A20FB11DAD5FD8
:100D8000BE4F2C91EC01A881B9812C9380818F5F9B
:100D90008083DF91CF9108955058BB27AA270ED0AA
:100DA00048C139D130F03ED120F031F49F3F11F4E9
:100DB0001EF42EC10EF4E095E7FB24C1E92F4AD1C1
:100DC00080F3BA17620773078407950718F071F468
:100DD0009EF562C10EF4E0950B2EBA2FA02D0B01EB
:100DE000B90190010C01CA01A0011124FF27591B70
:100DF00099F0593F50F4503E68F11A16F040A22F76
:100E0000232F342F4427585FF3CF469537952795E6
:100E1000A795F0405395C9F77EF41F16BA0B620BE5
:100E2000730B840BBAF09150A1F0FF0FBB1F661F2C
:100E3000771F881FC2F70EC0BA0F621F731F841F6F
:100E400048F4879577956795B795F7959E3F08F095
:100E5000B3CF9395880F08F09927EE0F9795879554
:100E600008950CD0E6C0DED040F0D5D030F021F4AB
:100E70005F3F19F0C7C0511110C1CAC0EBD098F341
:100E80009923C9F35523B1F3951B550BBB27AA270B
:100E900062177307840738F09F5F5F4F220F331F7D
:100EA000441FAA1FA9F333D00E2E3AF0E0E830D049
:100EB00091505040E695001CCAF729D0FE2F27D04C
:100EC000660F771F881FBB1F261737074807AB071A
:100ED000B0E809F0BB0B802DBF01FF2793585F4F8F
:100EE0002AF09E3F510568F08DC0D7C05F3FECF3FC
:100EF000983EDCF3869577956795B795F7959F5F54
:100F0000C9F7880F911D9695879597F90895E1E0A7
:100F1000660F771F881FBB1F621773078407BA0706
:100F200020F0621B730B840BBA0BEE1F88F7E09561
:100F3000089598D088F09F5790F0B92F9927B7510E
:100F4000A0F0D1F0660F771F881F991F1AF0BA958D
:100F5000C9F712C0B13081F09FD0B1E008959CC0B4
:100F6000672F782F8827B85F39F0B93FCCF3869583
:100F700077956795B395D9F73EF4909580957095E0
:100F800061957F4F8F4F9F4F0895E89409C097FB5D
:100F90003EF490958095709561957F4F8F4F9F4F50
:100FA0009923A9F0F92F96E9BB279395F695879594
:100FB00077956795B795F111F8CFFAF4BB0F11F457
:100FC00060FF1BC06F5F7F4F8F4F9F4F16C08823FE
:100FD00011F096E911C0772321F09EE8872F762F34
:100FE00005C0662371F096E8862F70E060E02AF075
:100FF0009A95660F771F881FDAF7880F9695879561
:1010000097F9089597F99F6780E870E060E0089588
:101010009FEF80EC089500240A9416161706180610
:101020000906089500240A941216130614060506EC
:101030000895092E0394000C11F4882352F0BB0F7D
:1010400040F4BF2B11F460FF04C06F5F7F4F8F4FE0
:101050009F4F089557FD9058440F551F59F05F3F1B
:1010600071F04795880F97FB991F61F09F3F79F0CA
:1010700087950895121613061406551FF2CF46954C
:10108000F1DF08C0161617061806991FF1CF8695CE
:101090007105610508940895E894BB2766277727B2
:1010A000CB0197F908950BD0C4CFB5DF28F0BADF94
:1010B00018F0952309F0A6CFABCF1124EECFCADFED
:1010C000A0F3959FD1F3950F50E0551F629FF0015B
:1010D000729FBB27F00DB11D639FAA27F00DB11DB4
:1010E000AA1F649F6627B00DA11D661F829F22273D
:1010F000B00DA11D621F739FB00DA11D621F839FC4
:10110000A00D611D221F749F3327A00D611D231F99
:10111000849F600D211D822F762F6A2F11249F57E7
:1011200050408AF0E1F088234AF0EE0FFF1FBB1F0A
:10113000661F771F881F91505040A9F79E3F5105A9
:1011400070F060CFAACF5F3FECF3983EDCF386955A
:1011500077956795B795F795E7959F5FC1F7FE2B54
:10116000880F911D9695879597F908957BDFE0F09C
:101170009E37D8F09639B8F49E3848F4672F782F08
:101180008827985FF9CF86957795679593959539D8
:10119000D0F3B62FB1706B0F711D811D20F48795B0
:1011A00077956795939502C01CC077CF882371F41B
:1011B000772321F09850872B762F07C0662311F4F0
:1011C00099270DC09051862B70E060E02AF09A9527
:1011D000660F771F881FDAF7880F9695879597F91E
:1011E00008959F3F31F0915020F48795779567954A
:1011F000B795880F911D9695879597F90895CF9388
:10120000DF938230910510F482E090E0E091282590
:10121000F091292520E030E0A0E0B0E0309739F1EE
:101220004081518148175907B8F04817590771F4A0
:1012300082819381109729F012968D939C93139736
:101240002CC0809328259093292527C0211531058E
:1012500031F04217530718F0A901DB0101C0EF017B
:101260009A01BD01DF010280F381E02DD7CF211566
:101270003105F9F0281B390B2430310580F48A81BF
:101280009B816115710521F0FB018283938304C06A
:101290008093282590932925FE01329644C0FE01B3
:1012A000E20FF31F819391932250310928833983F0
:1012B0003AC02091262530912725232B41F42091F7
:1012C000022030910320209326253093272520915A
:1012D0000020309101202115310541F42DB73EB792
:1012E0004091042050910520241B350BE0912625C8
:1012F000F0912725E217F307A0F42E1B3F0B2817C8
:10130000390778F0AC014E5F5F4F2417350748F07E
:101310004E0F5F1F4093262550932725819391936D
:1013200002C0E0E0F0E0CF01DF91CF910895CF93CC
:10133000DF93009709F487C0FC0132971282138271
:10134000C0912825D0912925209781F420813181D1
:10135000280F391F80912625909127258217930702
:1013600079F5E0932625F09327256DC0DE0120E076
:1013700030E0AE17BF0750F412964D915C91139771
:101380009D014115510509F1DA01F3CFA283B38321
:1013900040815181840F951F8A179B0771F48D91AD
:1013A0009C911197840F951F0296808391831296CA
:1013B0008D919C911397828393832115310529F494
:1013C000E0932825F09329253EC0D9011296ED938C
:1013D000FC9313974D915D91A40FB51FEA17FB077E
:1013E00079F480819181840F951F0296D9018D93A4
:1013F0009C9311978281938112968D939C9313975E
:10140000E0E0F0E08A819B81009719F0FE01EC0199
:10141000F9CFCE01029628813981820F931F209146
:101420002625309127252817390769F4309729F4A4
:10143000109228251092292502C012821382C0938F
:101440002625D0932725DF91CF910895DC0101C097
:101450006D9341505040E0F70895FB01DC010D9081
:101460000020E9F7119701900D920020E1F708950F
:10147000FB01DC018D91019080190110D9F3990BCA
:101480000895FB01DC0101900D920020E1F7089521
:10149000BB274A3031F4992322F4BDE2909581951F
:1014A0009F4F01C0BB27FB015527AA27880F991F13
:1014B000AA1FA41710F0A41B83955051B9F7A05D83
:1014C000AA3308F0A95DA193009779F7B111B19300
:1014D0001192CB0100C0DC01FC01672F71917723D1
:1014E000E1F7329704C07C916D9370836291AE17DF
:0A14F000BF07C8F30895F894FFCF7A
:1014FA0000002A25200061626364656667000000B7
:10150A0000000D0A506F70756C6174696F6E6C69BA
:10151A0073740D0A004E722E0900446174615B00F7
:10152A005D09004E6F206D656D6F7279001B5B312E
:10153A003B31481B5B324A004E43464720300D0A76
:10154A000053424956203530300D0A004E6F742040
:10155A0076616C6964000D0A66756E637469650D5F
:10156A000A002A52524E00444E4F004E494E005332
:10157A0044415400414952004E6F20636F6D6D61C2
:06158A006E640D0A000072
:00000001FF
