S0150000636F6D6D756E69636174696F6E2E7372656399
S1130000FDC0000020C100001EC100001CC1000092
S11300101AC1000018C1000016C1000014C100007C
S113002012C1000010C100000EC100000CC100008C
S11300300AC1000008C1000006C1000004C100009C
S113004002C1000000C10000FEC00000FCC00000AE
S1130050FAC00000F8C00000F6C00000F4C00000C0
S1130060F2C000009AC10000CCC10000ECC0000046
S1130070FCC100002EC20000E6C00000E4C0000085
S1130080E2C00000E0C00000DEC00000DCC00000F0
S1130090DAC00000D8C00000D6C00000D4C0000000
S11300A0D2C00000D0C00000CEC00000CCC0000010
S11300B0CAC00000C8C00000C6C00000C4C0000020
S11300C0C2C00000C0C00000BEC00000BCC0000030
S11300D0BAC00000B8C00000B6C00000B4C0000040
S11300E0B2C00000B0C00000AEC00000ACC0000050
S11300F0AAC00000A8C00000A6C00000A4C0000060
S1130100A2C00000A0C000009EC000009CC000006F
S11301109AC0000098C0000096C0000094C000007F
S113012092C0000090C000008EC000008CC000008F
S11301308AC0000088C0000086C0000084C000009F
S113014082C0000080C000007EC000007CC00000AF
S11301507AC0000078C0000076C0000074C00000BF
S113016072C0000070C000006EC000006CC00000CF
S11301706AC0000068C0000066C0000064C00000DF
S113018062C0000060C000005EC000005CC00000EF
S11301905AC0000058C0000056C0000054C00000FF
S11301A052C0000050C000004EC000004CC000000F
S11301B04AC0000048C0000046C0000044C000001F
S11301C042C0000040C000003EC000003CC000002F
S11301D03AC0000038C0000036C0000034C000003F
S11301E032C0000030C000002EC000002CC000004F
S11301F02AC0000028C0000026C0000011241FBE31
S1130200CFEFCDBFDFE3DEBF00E00CBF18BE19BEE9
S11302101ABE1BBE10E2A0E0B0E2EAE1F4E100E0A5
S11302200BBF02C007900D92AA38B107D9F71BBEC5
S113023025E2AAE8B0E201C01D92AE31B207E1F7AF
S11302407CD10C940B0ADCCE88ED84BFE0E5F0E0B1
S1130250808182608083818181FFFDCF88ED84BFAE
S113026081E0809340000895CF93DF9386E090E28D
S113027077D489E190E274D4C0E0D0E08EE190E2DA
S11302806FD44AE060E070E0CE010E94D80980E0BB
S113029090E066D484E290E263D42196C530D1051F
S11302A069F783E490E25CD4DF91CF910895CF9213
S11302B0DF92EF92FF920F931F93CF93DF937C0112
S11302C0D3DFE114F10481F1C12CD12C4AE060E0C8
S11302D070E0C6010E94D80980E090E041D486E233
S11302E090E23ED4E7018701065F1F4F89919991FF
S11302F037D486E290E234D4C017D107B9F783E447
S113030090E22ED42FEF83EC99E02150804090406E
S1130310E1F700C00000F701E284F384FFEFCF1A95
S1130320DF0AE114F10491F6DF91CF911F910F914F
S1130330FF90EF90DF90CF900895EF92FF920F938C
S11303401F93CF93DF93EC017B018CE090E0E1D627
S11303508C01892B19F488E290E202D48CE0F80134
S113036011928A95E9F7F701D801B701665F7F4FCB
S1130370219131912D933D93E617F707C9F78881B1
S11303809981F8018287938708831983DF91CF913C
S11303901F910F91FF90EF9008951F920F920FB647
S11303A00F92112408B60F9218BE09B60F9219BE07
S11303B00BB60F921BBE2F933F934F935F936F9394
S11303C07F938F939F93AF93BF93EF93FF938CE8A7
S11303D090E22CD4FF91EF91BF91AF919F918F91B7
S11303E07F916F915F914F913F912F910F900BBE31
S11303F00F9009BE0F9008BE0F900FBE0F901F9074
S113040018951F920F920FB60F92112408B60F92EF
S113041018BE09B60F9219BE0BB60F921BBE2F93CE
S11304203F934F935F936F937F938F939F93AF9378
S1130430BF93EF93FF938CE890E213D4FF91EF9175
S1130440BF91AF919F918F917F916F915F914F91E8
S11304503F912F910F900BBE0F9009BE0F9008BED5
S11304600F900FBE0F901F9018951F920F920FB60A
S11304700F92112408B60F9218BE09B60F9219BE36
S11304800BB60F921BBE2F933F934F935F936F93C3
S11304907F938F939F93AF93BF93EF93FF9383E9DE
S11304A092E2C4D3FF91EF91BF91AF919F918F914D
S11304B07F916F915F914F913F912F910F900BBE60
S11304C00F9009BE0F9008BE0F900FBE0F901F90A3
S11304D018951F920F920FB60F92112408B60F921F
S11304E018BE09B60F9219BE0BB60F921BBE2F93FE
S11304F03F934F935F936F937F938F939F93AF93A8
S1130500BF93EF93FF9383E992E2ABD3FF91EF9113
S1130510BF91AF919F918F917F916F915F914F9117
S11305203F912F910F900BBE0F9009BE0F9008BE04
S11305300F900FBE0F901F901895CF93DF93CDB7F8
S1130540DEB7C058D109CDBFDEBF7EDEC12CE12CA1
S113055012ECF12E01E010E020E038E448EE51E026
S113056060EA78E08CE890E29ED220E038E448EE3D
S113057051E060EB78E083E992E295D281E08093E8
S1130580A200789482E390E2EBD22FEF83EC99E01F
S1130590215080409040E1F700C000008DE390E2DC
S11305A0E4D286E490E2E1D28E010F5F1F4FF8019E
S11305B001900020E9F73197AF01401B510B60E037
S11305C070E0C801D3D62FEF83EC99E0215080402E
S11305D09040E1F700C00000E5D0BC01C801E1D6BD
S11305E083E490E2BDD261E0C80109D0813019F4FE
S11305F0C8015DD0DCCF81E590E2B2D2D8CFFC0156
S113060001900020E9F73197E81BF90B613029F4D8
S113061081E0E93219F080E0089580E008950F93B5
S11306201F93CF93DF93CDB7DEB72A97CDBFDEBF3D
S11306308C018AE190E06DD5AC01F80191819C3286
S113064059F0329620E0DA01A20FB11D9C932F5F7E
S113065091919C32C1F701C020E0FA01E20FF11D33
S1130660108249835A83CA010D968B839C83059615
S11306708D839E8303968F839887485E5F4F498757
S11306805A87BE016F5F7F4F8AE890E256DE82E3AD
S113069090E266D280918A2090918B2008DE2A967F
S11306A0CDBFDEBFDF91CF911F910F910895EF92DF
S11306B0FF920F931F93CF93DF9300D01F92CDB778
S11306C0DEB77C01CE010196FC0101900020E9F720
S11306D03197AF01481B590B60E070E047D6D70152
S11306E011968C918A3329F487010F5F1F4F90E094
S11306F01EC087010E5F1F4FF70182818A33B1F05C
S1130700F80190E004C08F0180818A3381F08F0169
S1130710A1E0B0E0AC0FBD1FA90FB11D8C939F5F8A
S11307203196D8018C918A3371F701C090E0E1E0F1
S1130730F0E0EC0FFD1FE90FF11D108267E670E297
S1130740CE01019625D6892B21F4C801019667DFD5
S11307501FC06CE670E2CE0101961AD6892BC1F057
S113076060E770E2CE01019613D6892B89F064E725
S113077070E2CE0101960CD6892B51F069E770E244
S1130780CE01019605D6892B19F08DE790E2E8D1C8
S11307902496CDBFDEBFDF91CF911F910F91FF90C3
S11307A0EF9008950F931F93CF93DF93CDB7DEB7E8
S11307B0C058D109CDBFDEBFEAE9F4E201900020C0
S11307C0E9F73197AF014A59544260E070E08AE991
S11307D094E2CCD58E010F5F1F4FF80101900020E9
S11307E0E9F73197AF01401B510B60E070E0C8019D
S11307F0BDD58CE890E221D08983B8018AE994E2DE
S1130800D0D589818D3071F08D3031F0BE016F5FAC
S11308107F4F8AE994E2B1D58CE890E20ED08983C7
S11308208D3091F78AE994E2C058DF4FCDBFDEBF27
S1130830DF91CF911F910F910895CF93DF93EC0136
S1130840DDD1882349F0E0EBF8E0918196FFFDCFFC
S1130850CE01DFD190E002C080E091E0DF91CF9142
S113086008951F93CF93DF93EC01162F91D1882322
S113087019F0612FCE0199D1DF91CF911F91089585
S11308800F931F93CF93DF93EB012196FB016081BC
S1130890662331F08C01C801E4DF69916111FBCF5B
S11308A0DF91CF911F910F910895803A28E092072C
S11308B039F4E0E4F6E088E0818384E082830895FB
S11308C0803B28E0920739F4E0E4F6E080E8818395
S11308D080E482830895803A29E0920739F4E0E6BF
S11308E0F6E088E0818384E082830895803B29E0F8
S11308F0920739F4E0E6F6E080E8818380E48283BD
S11309000895803A9A4031F4E0E8F6E088E0818383
S113091084E0828308954F925F926F927F928F92C8
S11309209F92AF92BF92CF92DF92EF92FF920F937A
S11309301F93CF93DF9349015A012E2D2170C0E1FB
S1130940D0E002C0D595C7952A95E2F700230CF0B4
S113095038C0A5D26B017C01DD27BE01DD0F880BF9
S1130960990B9FD22B013C01C501B40198D29B0184
S1130970AC01C301B20121D39B01AC01C701B60193
S1130980FAD120E030E040E85FE390D16B017C01D4
S1130990112701950CF4109581E090E002C0880FB6
S11309A0991F0A95E2F7BC01990F880B990B79D22C
S11309B09B01AC01C701B60100D362D344D2CB0181
S11309C034C06DD26B017C01CE019927BC01990F13
S11309D0880B990B66D22B013C01C501B4015FD28F
S11309E09B01AC01C301B201E8D29B01AC01C70178
S11309F0B601C1D16B017C0181E090E002C0880F97
S1130A00991F0A95E2F7BC01990F880B990B49D2FB
S1130A109B01AC01C701B601AED120E030E040E853
S1130A205FE344D12DD30FD2CB01DF91CF911F913E
S1130A300F91FF90EF90DF90CF90BF90AF909F9079
S1130A408F907F906F905F904F9008954F925F9238
S1130A506F927F928F929F92AF92BF92EF920F9379
S1130A60CF93DF932B013C0149015A01D02FC9EFE9
S1130A70ED2E0C2FA5019401C301B2014CDF8115A9
S1130A80904118F0CF5FC83099F78C2FDF91CF9148
S1130A900F91EF90BF90AF909F908F907F906F9049
S1130AA05F904F9008952F923F924F925F926F9272
S1130AB07F928F929F92AF92BF92CF92EF92FF92CA
S1130AC00F931F93CF93DF93EC011B0129013A018C
S1130AD047015801EC2C0C2DA5019401C301B2016E
S1130AE0B5DF182F082FA5019401C301B20113DF4C
S1130AF0F82E092F41E0B101CE013CD0E881F98103
S1130B0083E08583E881F981948190619483E8810D
S1130B10F981948198609483E881F98123812F7C01
S1130B2020612383E881F981F682E881F9811295B5
S1130B30107F102B178388819981B7DEDF91CF91C5
S1130B401F910F91FF90EF90CF90BF90AF909F9027
S1130B508F907F906F905F904F903F902F9008956B
S1130B60BC0183E992E28CCE0895BC018CE890E24A
S1130B7087CE0895FC01608371834283EC5FFD4F4F
S1130B801082319710823396108231971082089523
S1130B90FC01EB5FFD4F20813196308191E0920F93
S1130BA081E0931301C080E00895CF93DF93FC01AB
S1130BB0DC01AB5FBD4F9C9111962C919F5F81E04E
S1130BC0921301C080E08823B1F0EF01CB5FDD4FC9
S1130BD09881DF01A90FB11DAD5FBE4F6C939F5F7C
S1130BE09883A081B18113969C9113979C7F228155
S1130BF0922B13969C93DF91CF910895FC01ED5FA6
S1130C00FD4F20813196908181E0291301C080E05D
S1130C100895FC01EC5FFD4F2081DC01A20FB11DA2
S1130C2013968C9190819F5F90830895FC01ED5FF2
S1130C30FD4F20812F5F31963081DC01ED91FC91D5
S1130C4011974081231759F0FC01ED5FFD4F30816E
S1130C50A30FB11D13964C93208381E0089580E087
S1130C600895CF93DF93FC01EA5FFD4F2081319714
S1130C703081321307C0DC01ED91FC9183818C7FBC
S1130C80838311C0FC01EA5FFD4F2081DC01A20FC8
S1130C90B11DAD5FBE4F2C91EC01A881B9812C939D
S1130CA080818F5F8083DF91CF9108955058BB2757
S1130CB0AA270ED048C139D130F03ED120F031F40A
S1130CC09F3F11F41EF42EC10EF4E095E7FB24C1FE
S1130CD0E92F4AD180F3BA1762077307840795078F
S1130CE018F071F49EF562C10EF4E0950B2EBA2F44
S1130CF0A02D0B01B90190010C01CA01A00111241E
S1130D00FF27591B99F0593F50F4503E68F11A16C9
S1130D10F040A22F232F342F4427585FF3CF46955A
S1130D2037952795A795F0405395C9F77EF41F167C
S1130D30BA0B620B730B840BBAF09150A1F0FF0F46
S1130D40BB1F661F771F881FC2F70EC0BA0F621F32
S1130D50731F841F48F4879577956795B795F79522
S1130D609E3F08F0B3CF9395880F08F09927EE0FB4
S1130D709795879508950CD0E6C0DED040F0D5D085
S1130D8030F021F45F3F19F0C7C0511110C1CAC03F
S1130D90EBD098F39923C9F35523B1F3951B550B65
S1130DA0BB27AA2762177307840738F09F5F5F4F3A
S1130DB0220F331F441FAA1FA9F333D00E2E3AF07B
S1130DC0E0E830D091505040E695001CCAF729D095
S1130DD0FE2F27D0660F771F881FBB1F26173707E4
S1130DE04807AB07B0E809F0BB0B802DBF01FF2714
S1130DF093585F4F2AF09E3F510568F08DC0D7C0CD
S1130E005F3FECF3983EDCF3869577956795B7954D
S1130E10F7959F5FC9F7880F911D9695879597F968
S1130E200895E1E0660F771F881FBB1F62177307E1
S1130E308407BA0720F0621B730B840BBA0BEE1FF6
S1130E4088F7E095089598D088F09F5790F0B92FCF
S1130E509927B751A0F0D1F0660F771F881F991F0B
S1130E601AF0BA95C9F712C0B13081F09FD0B1E041
S1130E7008959CC0672F782F8827B85F39F0B93F51
S1130E80CCF3869577956795B395D9F73EF490950D
S1130E908095709561957F4F8F4F9F4F0895E8948B
S1130EA009C097FB3EF490958095709561957F4FAE
S1130EB08F4F9F4F9923A9F0F92F96E9BB2793955C
S1130EC0F695879577956795B795F111F8CFFAF46C
S1130ED0BB0F11F460FF1BC06F5F7F4F8F4F9F4F9D
S1130EE016C0882311F096E911C0772321F09EE8FB
S1130EF0872F762F05C0662371F096E8862F70E061
S1130F0060E02AF09A95660F771F881FDAF7880F3A
S1130F109695879597F9089597F99F6780E870E00B
S1130F2060E008959FEF80EC089500240A9416165B
S1130F30170618060906089500240A9412161306C3
S1130F40140605060895092E0394000C11F4882351
S1130F5052F0BB0F40F4BF2B11F460FF04C06F5F6D
S1130F607F4F8F4F9F4F089557FD9058440F551F43
S1130F7059F05F3F71F04795880F97FB991F61F017
S1130F809F3F79F087950895121613061406551F8E
S1130F90F2CF4695F1DF08C0161617061806991FFA
S1130FA0F1CF86957105610508940895E894BB27EF
S1130FB066277727CB0197F908950BD0C4CFB5DF07
S1130FC028F0BADF18F0952309F0A6CFABCF11248F
S1130FD0EECFCADFA0F3959FD1F3950F50E0551FD4
S1130FE0629FF001729FBB27F00DB11D639FAA277A
S1130FF0F00DB11DAA1F649F6627B00DA11D661FC9
S1131000829F2227B00DA11D621F739FB00DA11DE9
S1131010621F839FA00D611D221F749F3327A00DA3
S1131020611D231F849F600D211D822F762F6A2F3F
S113103011249F5750408AF0E1F088234AF0EE0FC4
S1131040FF1FBB1F661F771F881F91505040A9F7D1
S11310509E3F510570F060CFAACF5F3FECF3983EFE
S1131060DCF3869577956795B795F795E7959F5F38
S1131070C1F7FE2B880F911D9695879597F90895D2
S11310807BDFE0F09E37D8F09639B8F49E3848F408
S1131090672F782F8827985FF9CF8695779567957E
S11310A093959539D0F3B62FB1706B0F711D811DD7
S11310B020F4879577956795939502C01CC077CFE8
S11310C0882371F4772321F09850872B762F07C05B
S11310D0662311F499270DC09051862B70E060E0CF
S11310E02AF09A95660F771F881FDAF7880F96956E
S11310F0879597F908959F3F31F0915020F4879593
S113110077956795B795880F911D9695879597F96B
S11311100895CF93DF938230910510F482E090E03C
S1131120E0911C25F0911D2520E030E0C0E0D0E0E6
S1131130309711F14081518148175907C0F0481781
S1131140590761F482819381209719F08A839B83E4
S11311502BC080931C2590931D2526C02115310595
S113116019F04217530718F49A01BE01DF01EF0189
S11311700280F381E02DDCCF2115310509F1281B14
S1131180390B2430310590F412968D919C9113976C
S11311906115710521F0FB018283938304C0809360
S11311A01C2590931D25FD01329644C0FD01E20FDC
S11311B0F31F81939193225031092D933C933AC0AC
S11311C020911A2530911B25232B41F420910220D4
S11311D03091032020931A2530931B252091002061
S11311E0309101202115310541F42DB73EB74091CE
S11311F0042050910520241B350BE0911A25F09111
S11312001B25E217F307A0F42E1B3F0B2817390701
S113121078F0AC014E5F5F4F2417350748F04E0F4E
S11312205F1F40931A2550931B258193919302C00D
S1131230E0E0F0E0CF01DF91CF9108950F931F9389
S1131240CF93DF93009709F48CC0FC01329712828C
S1131250138200911C2510911D250115110581F49F
S113126020813181820F931F20911A2530911B25F3
S11312702817390779F5E0931A25F0931B2571C0D7
S1131280D80140E050E0AE17BF0750F412962D91FC
S11312903C911397AD012115310509F1D901F3CF23
S11312A09D01DA012283338360817181860F971F48
S11312B08217930769F4EC0128813981260F371FBF
S11312C02E5F3F4F208331838A819B818283938366
S11312D0452B29F4E0931C25F0931D2542C012965A
S11312E0ED93FC931397ED01499159919E01240FBD
S11312F0351FE217F30771F480819181840F951FE4
S113130002968D939C9311978281938112968D936B
S11313109C931397E0E0F0E0D80112968D919C9194
S11313201397009719F0F8018C01F6CF8D919C91D9
S113133098012E5F3F4F820F931F20911A25309101
S11313401B252817390769F4309729F410921C25B6
S113135010921D2502C01282138200931A25109345
S11313601B25DF91CF911F910F910895DC0101C0DE
S11313706D9341505040E0F70895FB01DC010D905E
S11313800020E9F7119701900D920020E1F70895EC
S1131390FB01DC018D91019080190110D9F3990BA7
S11313A00895FB01DC0101900D920020E1F70895FE
S11313B0BB274A3031F4992322F4BDE290958195FC
S11313C09F4F01C0BB27FB015527AA27880F991FF0
S11313D0AA1FA41710F0A41B83955051B9F7A05D60
S11313E0AA3308F0A95DA193009779F7B111B193DD
S11313F01192CB0100C0DC01FC01672F71917723AE
S1131400E1F7329704C07C916D9370836291AE17BB
S10D1410BF07C8F30895F894FFCF56
S113141A00001E2520000D0A506F70756C617469F6
S113142A6F6E6C6973740D0A004E722E0900446162
S113143A74615B005D0909004E6F206D656D6F7202
S113144A79001B5B313B31481B5B324A004E4346F1
S113145A4720300D0A0053424956203530300D0AD0
S113146A004E6F742076616C6964000D0A66756EAD
S113147A637469650D0A002A52524E00444E4F00A5
S113148A4E494E005344415400414952004E6F2084
S10D149A636F6D6D616E640D0A004E
S9030000FC
